:1000000030C089C64CC04BC05BC849C048C047C05F
:1000100046C0EFC644C043C042C041C040C03FC01C
:100020003EC03DC03CC026C329C333C33AC33CC312
:10003000B9C3BBC3E7C3EEC3F0C3FDC30CC412C452
:1000400014C4BEC3BFC3C0C3C1C3C2C3C3C3C4C33C
:10005000C5C3C6C3C7C3C8C3C9C3CAC3CBC3CCC344
:10006000CDC30FEF07BB002708BB11241FBECFE590
:10007000D4E0DEBFCDBF10E0A0E6B0E0E4EDF2E1F9
:1000800002C005900D92AE37B107D9F710E0AEE788
:10009000B0E001C01D92A83DB107E1F71BC6B0CF8B
:1000A00083B399279695879596958795AC0141706E
:1000B000507080FD09C08091CC00882329F0809188
:1000C0007F00882309F4B0C01092D0001092C300C2
:1000D0001092D3008091C1009091C2009093CE0005
:1000E0008093CD001092C2001092C1008091CD008B
:1000F0009091CE00892B19F01092BC0009C080911C
:10010000BC008F3F29F08091BC008F5F8093BC00C2
:100110008091CD009091CE008153954740F0909111
:1001200095008091AF00890F912D911D03C08091A2
:10013000950099279093C5008093C4008091A100F9
:10014000882351F480917F00882331F08091A900A9
:100150009927880F991F15C0809194009927880FBF
:10016000991F90938100809380008091A100882343
:1001700061F080918000909181004E9730F486E488
:1001800090E090938100809380008091B600882356
:1001900051F480917F00882331F48091B500992734
:1001A000880F991F05C08091C4009091C500825EA0
:1001B0008093C00080919300843021F0809193005F
:1001C0008530C1F488EE93E09093CA008093C90013
:1001D00080918E0090918F00019690938F00809374
:1001E0008E0080918E0090918F00049718F081E02E
:1001F0008093900080919300863029F480918D0047
:100200008F5F80938D008091B600882319F0109243
:10021000B90003C081E08093B90088EC90E090932E
:10022000BF008093BE001BC0969A979A21E020934E
:1002300086008091BD00882391F450938100409303
:1002400080005093C5004093C4002093B90080EB18
:1002500094E09093BF008093BE002093BD0082EC99
:1002600082BF89B7816089BF089580918B00882300
:1002700031F48091D6009091D700892B21F0979886
:10028000969A939A08958091D300882309F44CC0DC
:1002900080918600882321F0969A979A93980895E2
:1002A0008091D1009091D20001969093D2008093DA
:1002B000D1008091D1009091D20080549F4190F460
:1002C000939880917F00882319F0969A979A0895C1
:1002D0008091B100873018F4969A97980895979A6C
:1002E00096980895969897989398849B03C09698AB
:1002F00097980FC080917F00882311F0969A08C0CC
:100300008091B100873018F49798969A02C0969819
:10031000979A8091D1009091D20089599A4320F008
:100320001092D2001092D100089508959091A100EA
:10033000992341F480917F00813021F49A9902C081
:1003400090937F000895089580919500882321F06F
:1003500080919500863218F080E18093950080911D
:100360009400882321F0809194008B3F18F081E065
:100370008093940080919600882321F080919600CC
:100380008F3118F087E0809396008091930087303A
:1003900070F484990EC080919300813041F0809177
:1003A0009300823021F080919300833011F41092F9
:1003B00093008091A100823010F01092A10084E699
:1003C0008093AE00809197008A3118F084E080938A
:1003D000970080919700882319F481E08093A10011
:1003E0008091A900882321F08091A9008B3F18F00B
:1003F00083E58093A9008091AF008B3010F01092BC
:10040000AF008091A200823010F01092A200809183
:10041000AD008B3F20F48091AD00882319F48CE36C
:100420008093AD008091B400803110F01092B40040
:100430008091B5008D3318F083E28093B5009091E0
:10044000A200913039F483E0809393009093A00050
:10045000909397008091A000992782309105D1F068
:10046000833091052CF4009761F0019769F024C066
:1004700084309105C9F08430910584F00597F9F036
:100480001BC01092B6000DC01092B6001092CC00A6
:1004900081E00FC01092B60081E014C081E080932B
:1004A000B6001092CC0010C081E08093B60010928C
:1004B000CC00809392000AC082E08093A00081E08B
:1004C0008093B6008093CC001092920086E08093D7
:1004D000A3008DE28093A4008CE18093A50082E3C9
:1004E0008093B2001092B30010929800109299007D
:1004F00010929A0010929B0010929C0010929D0006
:1005000010929E0010929F001092AA001092AB00D1
:100510001092AC0010927E008091A100882319F007
:1005200081E080937F00089508959A9B02C0109205
:100530008600369919C085B18093B10085B180934A
:10054000B0008091B10082958F708093B10080914E
:10055000B0008F708093B0008091B0008295807F52
:100560008093B00080EC86B90895089584E6809366
:10057000AE00089510928B008FEF8FBF8AE085BF89
:100580008BB78F7B8BBF8AB78F7B8ABF92E093BF7D
:1005900082EC82BF88B78E7F88BF89B78E7F89BF84
:1005A00012BC95BD82E884BD88B78F7B88BF89B7B0
:1005B000806489BF1092BD0081E08093D3001092C7
:1005C0008F0010928E001092910010928D0008956D
:1005D000B89AC0988D9A959AA298AA9A8A98929A4F
:1005E0008C98949AA398AB9A8B9A93988F9A979891
:1005F0008E9A9698A098A89AA198A99A0895CF93B0
:10060000DF93CDB7DEB722970FB6F894DEBF0FBEEB
:10061000CDBF282F88EE93E089839A832223A9F007
:10062000222389F048EE53E049835A8389819A81D5
:10063000892B39F0000089819A81019789839A83F7
:10064000F5CF215089F7222359F722960FB6F89457
:10065000DEBF0FBECDBFDF91CF9108959927AA27A6
:10066000BB27FC013197EE30F10508F004C1ED5EC7
:10067000FF4F09946B5F60939500FDC0662311F4F2
:1006800075DFF9C08FE0689FC00111248093AE0030
:10069000F2C083E0689FC00111248D5F80939600B3
:1006A000EAC06093B400E7C077276230710509F4AF
:1006B00040C0633071053CF46115710561F0613033
:1006C0007105F9F0D8C063307105E9F16430710546
:1006D00009F450C0D0C08CE08093950086E08093F0
:1006E000A30091E09093A4009093940085E0809300
:1006F0009600109293001092A1009093970084E1CD
:10070000AEC080E18093950086E08093A30088E2EC
:100710008093A40081E08093940087E0809396000A
:10072000109293001092A10082E08093970086E1DE
:1007300096C080E18093950086E08093A30082E3D9
:100740008093A40021C084E18093950096E090936B
:10075000A30082E38093A40083E4809394008AE062
:1007600080939600109293001092A10090939700AE
:100770008EE175C080E18093950086E08093A300B0
:100780008DE28093A40081E08093940087E08093C1
:100790009600109293001092A10084E0809397003D
:1007A0008CE15DC06093930066C0862F9927AA27CD
:1007B000BB27FC01409708F05EC0EF5DFF4F099436
:1007C00081E01DC08DE21BC082E319C085E317C024
:1007D00088E315C08BE313C08FE311C083E40FC01F
:1007E00087E40DC08DE40BC083E509C08BE507C02D
:1007F00084E605C08FE603C08DE701C087EA8093D9
:10080000940039C0662319F481E08093A1006093BD
:10081000970031C06093A0002EC0862F9927880FC3
:10082000991F8093A3008091A300882321F581E084
:100830008093A30020C0862F9927880F991F880FC7
:10084000991F8093A4008091A4008823A1F481E0E3
:100850008093A40010C0862F9927880F991F80933A
:10086000A50009C06093AF0006C0862F9927880FA6
:10087000991F8093B50080919700882339F4809167
:100880009400813019F483E28093940008950895D0
:100890001F93CF93182FC62F662309F1812F992715
:1008A0008230910559F0833091051CF4019721F0B5
:1008B00002C0039729F0969A939A03C0969A01C0B2
:1008C000979A8AE09CDE9698939897988AE097DEAC
:1008D000C150989B04C0999B02C0CC23F9F6CF91DC
:1008E0001F910895FF920F931F93CF93DF93CDB77E
:1008F000DEB721970FB6F894DEBF0FBECDBFF82E3E
:10090000162F042F19828CE17ADE829942C01123BE
:1009100059F58981813049F08981893031F08981A7
:100920008A3019F089818B3021F489818F5F898326
:10093000F0CF849919C003C089818F5F8983898131
:100940008823D1F389818130B9F389818230A1F381
:100950008981833089F38981843071F3898185307D
:1009600059F389818C3041F389818F1540F0849946
:1009700005C0002319F486E0898301C019828981AA
:100980008F5F89836981812F83DF8CE138DE829BD1
:10099000BECF8981992721960FB6F894DEBF0FBE8E
:1009A000CDBFDF91CF911F910F91FF900895FF92DE
:1009B0000F931F93CF93DF93CDB7DEB72F970FB66B
:1009C000F894DEBF0FBECDBFFF248FE08E010F5F16
:1009D0001F4FD801E0E6F0E001900D928A95E1F713
:1009E00097984F2D6F2D8EE07DDFF82E829B03C0F0
:1009F00000008299FDCF0F0D111D41E0642FF80119
:100A0000808170DF8150682F8F2D28DE43E250E017
:100A100061E070E083E990E048D42F960FB6F89437
:100A2000DEBF0FBECDBFDF91CF911F910F91FF9021
:100A3000089543E250E061E070E083E990E024D45F
:100A400083E08093A6001092A7008BE08093A8001B
:100A50000895BEDD10928C001092C2001092C10069
:100A60008FEF9FEF9093CE008093CD00E2DF829BCB
:100A70009EDF6ADC83E287B980EC86B981E0BFDD66
:100A800054DD43E250E061E070E083E990E00DD492
:100A90008091AD00809389006DDD1092D20010929C
:100AA000D1000895CF93DF93CDB7DEB722970FB66D
:100AB000F894DEBF0FBECDBF83E090E089839A83B8
:100AC00089819A81892BB9F0989B02C0999908C0B5
:100AD00083E090E089839A83989BFCCF999BFACF1F
:100AE00081E08DDD89819A81019789839A8389814B
:100AF0009A81892B49F722960FB6F894DEBF0FBE74
:100B0000CDBFDF91CF910895AF92BF92DF92EF9268
:100B1000FF920F931F93CF93DF93CDB7DEB72E973E
:100B20000FB6F894DEBF0FBECDBF939897989698F6
:100B3000B9DF80918B0099279093D2008093D100E8
:100B400081E080938B008BB78F7B8BBFDD24FD2CE6
:100B500000E010E08EE05E010894A11CB11CD501FC
:100B6000EFE6F0E001900D928A95E1F7849902C0DA
:100B700055E0F52EED2C82991EC000E61AEE829902
:100B800009C001501040829903C001151105C9F731
:100B9000012B51F06E2D8F2D8F5F60DD63E080E0C3
:100BA00077DE8AE02CDD05C063E0862F71DE41E050
:100BB000D42E00E315E798992CC000E315E7F394D1
:100BC00081E0F81649F089E0F81631F08AE0F8166D
:100BD00019F08BE0F81671F4EE24F39481E0F81626
:100BE000E1F389E0F816C9F38AE0F816B1F38BE077
:100BF000F81699F38EE0F81609F4FF24849908C0DA
:100C000085E08F1518F48CE0F81611F4F394F8CF02
:100C100049DF99990CC000E315E7E394F501EF0D66
:100C2000F11D8081E81608F0EE243CDF03C00115B9
:100C3000110519F0015010400EC08F2D8F5F682FE5
:100C400082E026DE8AE0DBDC8E2D8F5F682F81E07C
:100C50001FDE00E315E7DD2009F48DCF80919600BB
:100C60008093CF00829903C00000829BFDCF8091CA
:100C7000D1009091D20080938B002E960FB6F894FD
:100C8000DEBF0FBECDBFDF91CF911F910F91FF90BF
:100C9000EF90DF90BF90AF900895989B04C0999B10
:100CA00002C000000895989B2FDF999905C080919C
:100CB0008B00809580938B00F5DE0895089517BA18
:100CC00083E088BB14BA15BA11BA12BA80EA85BF9C
:100CD000C098FFCFCFE5D4E0DEBFCDBFBADE829BA8
:100CE00004C0809196008093CF0081E08093D30070
:100CF0008BB780648BBFB9DA19DBCFDF16DCFBCF93
:100D00008091D300813011F4CBD9089581E0809394
:100D1000BD00089508951F920F920FB60F921124EF
:100D20002F933F934F935F936F937F938F939F93F3
:100D3000AF93BF93EF93FF9382994AC080918B004A
:100D4000882309F045C080919100882309F040C0B4
:100D50008BB78F7B8BBF9091BC008091B4009817AC
:100D600018F08091960001C08FE08093CF008091B1
:100D7000CF008093C60088EB9BE09093B8008093EF
:100D8000B700BEDF8091AD00809389008091930011
:100D9000823019F481E080938C009091930091301F
:100DA00059F480917E00882329F010927E00909360
:100DB0008C0002C090937E008091C7009091C80083
:100DC00090938500809384001092C8001092C70011
:100DD000FF91EF91BF91AF919F918F917F916F9113
:100DE0005F914F913F912F910F900FBE0F901F90E9
:100DF00018951F920F920FB60F9211242F933F93C5
:100E00004F935F936F937F938F939F93AF93BF9312
:100E1000EF93FF9382EC82BF8091800090918100DC
:100E2000892B49F0809180009091810001979093E7
:100E30008100809380008091C4009091C500892B2F
:100E400059F0939AC09A8091C4009091C50001977F
:100E50009093C5008093C4008091C4009091C50018
:100E6000892B09F4C09880917F00882339F083E0B2
:100E70008093B9001092BF001092BE002091C00074
:100E8000222309F096C08091B900992781309105FD
:100E9000A1F1823091051CF4892B29F0BDC0029785
:100EA00009F457C0B9C08091A000833030F19A9BFB
:100EB00012C08091BE009091BF00892B61F080919B
:100EC000BE009091BF0001979093BF008093BE0039
:100ED0002093C300A1C08091BE009091BF00892BD8
:100EE00009F494C08091C3008F5F8093C300809108
:100EF000C300843008F490C03FC09A990AC0809122
:100F0000BE009091BF00892B21F08091A200882320
:100F100069F182E08093B9008091BE009091BF009A
:100F2000009761F080919700882309F475C0809143
:100F300097009927880F991F029723C0209192004C
:100F4000222311F42093BD009093BF008093BE0034
:100F500060C08091A0008330C8F08091BE00909165
:100F6000BF00892B09F455C09A9B06C08091BE0032
:100F70009091BF00019705C081E08093B90080EB9C
:100F800094E09093BF008093BE0046C09A9B44C0FB
:100F90008091BE009091BF0001979093BF00809315
:100FA000BE008091BE009091BF008F5F9F4FA1F562
:100FB00030C08091C00081508093C0008091A0001B
:100FC0008330B8F08091C000882331F59A9924C00D
:100FD0008091B900882301F58091D0008F5F8093C4
:100FE000D0008091D0008233B8F481E08093C000BB
:100FF00013C09A9903C081E08093D0008091D00003
:10100000882351F48091C000882331F481E08093DB
:101010007F0083E08093B9008091800090918100EF
:10102000892BE9F58091C4009091C500892BB9F511
:101030008091B900833099F52091BD00222361F59C
:10104000829904C080919300833031F180919000A7
:10105000882371F08091C7009091C800823D91056E
:1010600038F48091840090918500823D910588F04C
:1010700080919300853031F480919000882311F0A5
:10108000829B0AC089B78E7F89BF81E08093D3009D
:1010900006C02093BD0002C01092BD0001D8FF9190
:1010A000EF91BF91AF919F918F917F916F915F91E0
:1010B0004F913F912F910F900FBE0F901F90189559
:1010C0001F920F920FB60F9211242F933F934F93BD
:1010D0005F936F937F938F939F93AF93BF93CF93C0
:1010E000EF93FF9382E884BDC091CF00CC2399F1A8
:1010F000829B06C08091CF0081508093CF0038C082
:101100008091C6008093CF008091B7009091B80085
:1011100001979093B8008093B7008091B7009091A9
:10112000B800892B29F580919300833009F18091D3
:101130009300853031F480918E0090918F00049758
:10114000B8F48091A10080958093A1008091A100C6
:1011500080937F000DC08AB78F7B8ABF8BB7806476
:101160008BBF80918C00813019F4CADDC0938C0054
:101170008091870090918800A0918900B0918A00A9
:101180000197A109B1098093870090938800A093EB
:101190008900B0938A008F5F9F4FAF4FBF4F09F414
:1011A0008EDD80918D00843018F081E08093910075
:1011B000809193008630C9F4809191008823A9F032
:1011C0008091D6009091D7009C0101969093D70012
:1011D0008093D600215D374040F01092D7001092E6
:1011E000D6001092910010928D0080919000813075
:1011F000B1F48091C9009091CA0001979093CA0000
:101200008093C9008091C9009091CA008F5F9F4F61
:1012100031F41092900010928F0010928E00809105
:10122000C7009091C800885E9D4F48F48091C70028
:101230009091C80001969093C8008093C700809158
:10124000C1009091C200885E9D4F48F48091C1001A
:101250009091C20001969093C2008093C10088B71C
:101260008F7B88BFFF91EF91CF91BF91AF919F91FD
:101270008F917F916F915F914F913F912F910F903F
:101280000FBE0F901F9018954115510569F0DC01B4
:10129000E199FECF7FBB6EBBE09A6F5F7F4F0DB2CF
:1012A0000D9241505040B1F708954115510589F014
:1012B000DC018FB7E199FECF7FBB6EBB0D900DBAFD
:1012C000F894E29AE19A8FBF6F5F7F4F4150504090
:0412D00089F70895FD
:1012D4000010100A1005071010061010100D101041
:0E12E400100A1005071010061010100D100053
:00000001FF
