:1000000030C042C64CC04BC0A9C749C048C047C059
:1000100046C096C644C043C042C041C040C03FC075
:100020003EC03DC03CC0E4C2E8C2F2C2F9C2FBC25D
:100030007BC37DC3A9C3B2C3B4C3C1C3D0C3D4C33C
:10004000D6C380C381C384C385C386C387C388C323
:1000500089C38AC38BC38CC38DC38EC38FC390C324
:1000600091C30FEF07BB002708BB11241FBECFE5CC
:10007000D4E0DEBFCDBF10E0A0E6B0E0E0ECF0E100
:1000800002C005900D92AE37B107D9F710E0AEE788
:10009000B0E001C01D92AE3CB107E1F7D4C5B0CFCE
:1000A0009091C2008091A800891748F08091C30008
:1000B000882329F080917F00882309F488C010925A
:1000C000BE008091B000882351F480917F00882386
:1000D00031F48091AF009927880F991F03C0809158
:1000E0008F00825E8093BB001092CA008091BC009A
:1000F0009091BD009093C5008093C4001092BD0004
:100100001092BC008091C4009091C500892B19F019
:100110001092B60009C08091B6008F3F29F08091FF
:10012000B6008F5F8093B6008091C4009091C500A7
:100130008153954740F090918F008091A900890FDD
:10014000912D911D03C080918F0099279093C0003D
:100150008093BF0080919B00882351F480917F00A1
:10016000882331F08091A3009927880F991F15C02B
:1001700080918E009927880F991F9093810080931A
:10018000800080919B00882361F080918000909195
:1001900081004E9730F482E390E090938100809349
:1001A00080008091B000882319F01092B30003C042
:1001B00081E08093B30088EC90E09093BA00809344
:1001C000B90082EC82BF89B7816089BF0895969A91
:1001D000979A21E0209384008091B8008823B9F495
:1001E00010928100109280001092C0001092BF0007
:1001F0002093B30088EC90E09093BA008093B9000C
:100200002093B80082EC82BF89B7822B89BF089502
:10021000089580918A00882321F09798969A939A5E
:1002200008958091CA00882309F44CC0809184000D
:10023000882321F0969A979A939808958091C80000
:100240009091C90001969093C9008093C800809155
:10025000C8009091C90080549F41C0F49698979827
:100260009398849B03C096989798089580917F00F7
:10027000882311F0969A08C08091AB00873018F45B
:100280009798969A08959698979A0895939880913A
:100290007F00882319F0969A979A09C08091AB0045
:1002A000873018F4969A979802C0979A96988091FA
:1002B000C8009091C90089599A4320F01092C90052
:1002C0001092C8000895089520919B00222361F4A4
:1002D00080917F00813041F49091C2008091A8000C
:1002E000981710F420937F000895089580918F004F
:1002F000882321F080918F00863218F080E180936E
:100300008F0080918E00882321F080918E008B3F9A
:1003100018F081E080938E0080919000882321F076
:10032000809190008F3118F087E080939000809149
:100330008D00843010F4849902C010928D00809159
:100340009B00823010F010929B0084E68093A800FE
:10035000809191008A3118F084E08093910080911F
:10036000A300882321F08091A3008B3F18F083E540
:100370008093A3008091A9008B3010F01092A90007
:1003800080919C00823010F010929C008091A70018
:100390008B3F20F48091A700882319F48CE380938D
:1003A000A7008091AE00803110F01092AE008091D5
:1003B000AF008D3318F084E18093A70080919C00FA
:1003C000813041F483E080938D0084E080939A0033
:1003D0001092910080919A00992782309105D1F076
:1003E000833091052CF4009761F0019769F024C0E7
:1003F00084309105C9F08430910584F00597F9F0B7
:100400001BC01092B0000DC01092B0001092C3003B
:1004100081E00FC01092B00081E014C081E08093B1
:10042000B0001092C30010C081E08093B000109221
:10043000C30080938C000AC085E080939A0081E01D
:100440008093B0008093C30010928C0086E080936C
:100450009D008DE280939E008CE180939F0082E35B
:100460008093AC001092AD00109292001092930015
:10047000109294001092950010929600109297009E
:1004800010929800109299001092A4001092A5006A
:100490001092A60010927E0080919B00882319F094
:1004A00081E080937F00089508959A9B06C08FEFA6
:1004B0008093C2001092840002C01092C20036994C
:1004C00019C085B18093AB0085B18093AA0080915B
:1004D000AB0082958F708093AB008091AA008F70E3
:1004E0008093AA008091AA008295807F8093AA00C1
:1004F00080EC86B90895089584E68093A800089555
:1005000010928A008FEF8FBF8AE085BF8BB78F7BF9
:100510008BBF8AB78F7B8ABF92E093BF82EC82BF8A
:1005200088B78E7F88BF89B78E7F89BF12BC95BD83
:1005300082E884BD88B78F7B88BF89B7806489BF14
:100540001092B80081E08093CA000895B89AC098CC
:100550008D9A959AA298AA9A8A98929A8C98949A27
:10056000A398AB9A8B9A93988F9A97988E9A96980D
:10057000A098A89AA198A99A0895CF93DF93CDB790
:10058000DEB722970FB6F894DEBF0FBECDBF282F7F
:1005900088EE93E089839A832223A9F0222389F0AD
:1005A00048EE53E049835A8389819A81892B39F037
:1005B000000089819A81019789839A83F5CF215020
:1005C00089F7222359F722960FB6F894DEBF0FBEA3
:1005D000CDBFDF91CF9108959927AA27BB27FC01B2
:1005E0003197EE30F10508F008C1ED5EFF4F099438
:1005F000660F6B5F60938F000895662311F47CDFB4
:1006000008958FE0689FC00111248093A800089589
:1006100083E0689FC00111248D5F8093900008954E
:100620006093AE00089577276230710509F443C0E6
:10063000633071053CF46115710569F06130710535
:1006400001F108956330710509F43FC0643071050C
:1006500009F452C008958CE080938F0086E0809367
:100660009D0091E090939E0090938E0085E0809392
:10067000900010928D0010929B009093910084E165
:1006800017C080E180938F0086E080939D0088E210
:1006900080939E0081E080938E0087E0809390009D
:1006A00010928D0010929B0082E08093910086E171
:1006B00080939F00089580E180938F0086E080936F
:1006C0009D0082E380939E0021C084E180938F008F
:1006D00096E090939D0082E380939E0083E4809354
:1006E0008E008AE08093900010928D0010929B0003
:1006F000909391008EE1DCCF80E180938F0086E0C3
:1007000080939D008DE280939E0081E080938E0017
:1007100087E08093900010928D0010929B0084E0FF
:10072000809391008CE1C4CF60938D000895862F53
:100730009927AA27BB27FC01409708F05EC0EF5D10
:10074000FF4F099481E001C08DE280938E000895EF
:1007500082E3FBCF85E3F9CF88E3F7CF8BE3F5CFD7
:100760008FE3F3CF83E4F1CF87E4EFCF8DE4EDCFD8
:1007700083E5EBCF8BE5E9CF84E6E7CF8FE6E5CFE6
:100780008DE7E3CF87EAE1CF662321F481E0809310
:100790009B0001C0615060939100089560939A009E
:1007A0000895862F9927880F991F80939D00809127
:1007B0009D00882311F581E080939D000895862F88
:1007C0009927880F991F880F991F80939E00809109
:1007D0009E00882391F481E080939E000895862FE7
:1007E0009927880F991F64CF6093A9000895862FD9
:1007F0009927880F991F8093AF00089508951F933C
:10080000CF93182FC62F662309F1812F99278230A5
:10081000910559F0833091051CF4019721F002C035
:10082000039729F0969A939A03C0969A01C0979AD3
:100830008AE0A3DE9698939897988AE09EDEC1504E
:10084000989B04C0999B02C0CC23F9F6CF911F91CD
:100850000895FF920F931F93CF93DF93CDB7DEB729
:1008600021970FB6F894DEBF0FBECDBFF82E162F1E
:10087000042F19828CE181DE829942C0112359F53F
:100880008981813049F08981893031F089818A30CC
:1008900019F089818B3021F489818F5F8983F0CFB2
:1008A000849919C003C089818F5F898389818823D6
:1008B000D1F389818130B9F389818230A1F38981B3
:1008C000833089F38981843071F38981853059F3CC
:1008D00089818C3041F389818F1540F0849905C05E
:1008E000002319F486E0898301C0198289818F5F12
:1008F00089836981812F83DF8CE13FDE829BBECFBC
:100900008981992721960FB6F894DEBF0FBECDBF1F
:10091000DF91CF911F910F91FF900895FF920F9358
:100920001F93CF93DF93CDB7DEB72F970FB6F89411
:10093000DEBF0FBECDBFFF248FE08E010F5F1F4FC4
:10094000D801E0E6F0E001900D928A95E1F79798E2
:100950004F2D6F2D8EE07DDFF82E829B03C00000AF
:100960008299FDCF0F0D111D41E0642FF8018081A8
:1009700070DF8150682F8F2D2FDE43E250E061E061
:1009800070E08DE890E087D32F960FB6F894DEBF25
:100990000FBECDBFDF91CF911F910F91FF900895B2
:1009A00043E250E061E070E08DE890E063D383E0E3
:1009B0008093A0001092A10088E08093A200089587
:1009C000C5DD10928B001092BD001092BC008FEF1D
:1009D0009FEF9093C5008093C400E2DF829B9EDF6F
:1009E00085DC83E287B980EC86B981E0C6DD5DDD18
:1009F00043E250E061E070E08DE890E04CD38091FC
:100A0000A700809388007CDD969A939A1092C90083
:100A10001092C8000895CF93DF93CDB7DEB7229729
:100A20000FB6F894DEBF0FBECDBF83E090E08983A0
:100A30009A8389819A81892BB9F0989B02C09999F0
:100A400008C083E090E089839A83989BFCCF999BB0
:100A5000FACF81E092DD89819A81019789839A8317
:100A600089819A81892B49F722960FB6F894DEBFC7
:100A70000FBECDBFDF91CF910895AF92BF92DF92AD
:100A8000EF92FF920F931F93CF93DF93CDB7DEB713
:100A90002E970FB6F894DEBF0FBECDBF93989798F0
:100AA0009698B9DF80918A0099279093C900809326
:100AB000C80081E080938A008BB78F7B8BBFDD24D9
:100AC000FD2C00E010E08EE05E010894A11CB11C3A
:100AD000D501EFE6F0E001900D928A95E1F7849957
:100AE00002C045E0F42EED2C82991EC000E61AEEFD
:100AF000829909C001501040829903C00115110567
:100B0000C9F7012B51F06E2D8F2D8F5F65DD63E0EE
:100B100080E075DE8AE031DD05C063E0862F6FDEA0
:100B200031E0D32E00E315E798992CC000E315E7D8
:100B3000F39481E0F81649F089E0F81631F08AE084
:100B4000F81619F08BE0F81671F4EE24F39481E0B6
:100B5000F816E1F389E0F816C9F38AE0F816B1F364
:100B60008BE0F81699F38DE0F81609F4FF248499C8
:100B700008C085E08F1518F48CE0F81611F4F39492
:100B8000F8CF49DF99990CC000E315E7E394F5012C
:100B9000EF0DF11D8081E81608F0EE243CDF03C064
:100BA0000115110519F0015010400EC08F2D8F5FF7
:100BB000682F82E024DE8AE0E0DC8E2D8F5F682FD4
:100BC00081E01DDE00E315E7DD2009F48DCF809183
:100BD00090008093C600829903C00000829BFDCFE5
:100BE0008091C8009091C90080938A002E960FB61C
:100BF000F894DEBF0FBECDBFDF91CF911F910F9153
:100C0000FF90EF90DF90BF90AF900895989B04C045
:100C1000999B02C000000895989B2FDF999905C009
:100C200080918A00809580938A00F5DE089508956A
:100C300017BA83E088BB14BA15BA11BA12BA80EA9F
:100C400085BFC098FFCFCFE5D4E0DEBFCDBFB8DE13
:100C5000829B04C0809190008093C60081E08093C5
:100C6000CA008BB780648BBFD4DA2EDBCFDF1DDCEC
:100C7000FBCF8091CA00813011F412DA089581E02F
:100C80008093B800089508951F920F920FB60F92A7
:100C900011242F933F934F935F936F937F938F9381
:100CA0009F93AF93BF93EF93FF93829938C0809146
:100CB0008A008823A1F58BB78F7B8BBF9091B600FC
:100CC0008091AE00981718F08091900001C08FE0DD
:100CD0008093C6008091C6008093C10084EC99E0A7
:100CE0009093B2008093B100C4DF8091A7008093FD
:100CF000880080918D00823019F481E080938B0010
:100D000090918D00913059F480917E00882329F0D4
:100D100010927E0090938B0002C090937E00FF9112
:100D2000EF91BF91AF919F918F917F916F915F9163
:100D30004F913F912F910F900FBE0F901F901895DC
:100D40001F920F920FB60F9211242F933F934F9340
:100D50005F936F937F938F939F93AF93BF93EF9323
:100D6000FF9382EC82BF9A9B04C08FEF8093C200F6
:100D700002C01092C2008091800090918100892B66
:100D800049F08091800090918100019790938100BB
:100D9000809380008091BF009091C000892B59F012
:100DA000939AC09A8091BF009091C0000197909350
:100DB000C0008093BF008091BF009091C000892B3C
:100DC00009F4C09880917F00882339F083E08093F4
:100DD000B3001092BA001092B9002091BB002223F8
:100DE00009F080C08091B300992781309105E1F12D
:100DF000823091051CF4892B29F079C0029709F4FF
:100E00005DC075C09091C2008091A800891790F4D0
:100E10008091B9009091BA00892B61F08091B9005E
:100E20009091BA0001979093BA008093B9002093F3
:100E3000BE005DC08091B9009091BA00892B21F469
:100E400081E080937F004AC08091BE008F5F8093D5
:100E5000BE008091BE00863008F449C081E08093D6
:100E6000B30080EB94E035C09091C2008091A8005F
:100E7000891750F08091B9009091BA00892B21F028
:100E800080919C00882301F182E08093B3008091DF
:100E9000B9009091BA00009731F0809191009927A4
:100EA000880F991F16C020918C00222311F42093E3
:100EB000B8009093BA008093B90010C08091B90037
:100EC0009091BA00892B51F08091B9009091BA00AD
:100ED00001979093BA008093B90009C083E0809392
:100EE000B30005C08091BB0081508093BB0080910E
:100EF000800090918100892B01F58091BF00909135
:100F0000C000892BD1F48091B3008330B1F490916B
:100F1000B800992379F4829904C080918D008330C0
:100F200049F089B78E7F89BF81E08093CA00909392
:100F3000850003C01092B800B3D8FF91EF91BF9124
:100F4000AF919F918F917F916F915F914F913F9161
:100F50002F910F900FBE0F901F9018951F920F9218
:100F60000FB60F9211242F933F934F935F936F937C
:100F70007F938F939F93AF93BF93CF93EF93FF9301
:100F800082E884BDC091C600CC2349F1829B06C093
:100F90008091C60081508093C6002EC08091C10010
:100FA0008093C6008091B1009091B2000197909318
:100FB000B2008093B1008091B1009091B200892B72
:100FC000D9F480918D008330B9F080919B00809599
:100FD00080939B0080919B0080937F000DC08AB717
:100FE0008F7B8ABF8BB780648BBF80918B008130F1
:100FF00019F43FDEC0938B008091860090918700AA
:10100000A0918800B09189000197A109B10980934E
:10101000860090938700A0938800B09389008F5F2B
:101020009F4FAF4FBF4F09F403DE8091BC009091FA
:10103000BD00885E9D4F48F48091BC009091BD003A
:1010400001969093BD008093BC0088B78F7B88BFCA
:10105000FF91EF91CF91BF91AF919F918F917F9130
:101060006F915F914F913F912F910F900FBE0F9015
:101070001F9018954115510569F0DC01E199FECFEB
:101080007FBB6EBBE09A6F5F7F4F0DB20D924150F8
:101090005040B1F708954115510589F0DC018FB733
:1010A000E199FECF7FBB6EBB0D900DBAF894E29A2A
:1010B000E19A8FBF6F5F7F4F4150504089F708958D
:1010C0000010100A1005041010061010100D10105A
:0E10D000100A1005041010061010100D10006C
:00000001FF
